:1000000095C1AFC1AEC19CC2ACC1ABC1AAC1A9C1AF
:10001000D7C1A7C1A6C1A5C1A4C1A3C1A2C10004E3
:10002000FFF112FCFA0FF706F00300FF00FD1000CD
:10003000FCEE0DF9FB04030A020FF92107F612E5A5
:1000400002FD10FBE1FBEF08EAFAF8F509F701F70A
:10005000F6FD061B06FFF3E906F410051809080E65
:10006000F705EC0AE7FBF404F5EF08F70BEE17F7DA
:100070000E00090B0410EA0DF90CF604E6EE03F984
:100080000EEF03FF12FB0B0E0007F108F9FBFBFE5E
:10009000F9EEFDFC04FCFE0B0C040103F8F3FE0278
:1000A00007000B0601FDFF0901FFFAFFFD0BF4FE3F
:1000B000F6FC020404FD0CFA04E90408FC07FAFE4D
:1000C000FFFCF5F6F606FBFB03FF0309FF02000049
:1000D0000CFD04FDFEFA0C00020FFF06F706FCFF04
:1000E000FDF0FFFCFCFEF9F90804010802FB00F832
:1000F00001050600F501F40008FAFDFDF9FF03FB18
:1001000005FC0410F908040107FAF4F9070101FDE0
:1001100000010201F7FB07FDFAFDF904FE080700E4
:100120000B01FBFDF5F705FDFDFCFD05020AFAFDDF
:1001300008F9F8FE03FF05020103020801FDFEF9BC
:10014000FD01FDFF0201FAFC00FB010101010202B9
:10015000F90106FEFD0702FFF7FA03FE01FFFFF9B2
:100160000109FFFD0306FB04FDFF03F3FD0205FB90
:1001700002F80301FC02FA08F70105FBF9FF04FF8E
:10018000FD0400FDFFFF04FFFF03040101F9040665
:10019000FEFCFC0002FEFD03F902FEFFFE0200FB76
:1001A000FAF903FE05FA0402FE07FFFE0100FB0256
:1001B000FD03000204FB010203FD03FDFE03FCFF3F
:1001C000FE01FCFAFF04FDFDFEFB01FD06FE000240
:1001D0000100FE01F705FB0404FE06FF00FC04021B
:1001E000FFFF01FDFEFFF901FFFA01FDFD02FB0328
:1001F000FEFD03FFFE010100000002FE010500FEFE
:1002000003FE00FE00FFF900FFFFFB02000200FEFC
:1002100001FD00FEFCFF0301FFFDFEFFFF01FE01EB
:100220000302020000FE03FBFD02FFFDFD0501FFCE
:10023000FF000100FDFE0001FF0002FEFFFE03FDC6
:10024000FE01FEFFFF0301FEFEFFFFFF00FF0001B6
:1002500000000403FEFFFE000000FEFB00000001A2
:10026000FDFEFFFEFD00FEFE01FE000001FF00019D
:1002700002FEFF0000020101FF02FF00FF01FE007D
:10028000FFFD01FE00FEFF0000FFFF0000FFFF007A
:100290000000000000000001010102020304050546
:1002A0000607090A0B0C0E0F1112141517191B1D46
:1002B0001F212325282A2C2F313436393B3E414338
:1002C00046494C4F5255585A5D6164676A6D707368
:1002D00076797C808386898C8F9295989B9EA2A547
:1002E000A7AAADB0B3B6B9BCBEC1C4C6C9CBCED047
:1002F000D3D5D7DADCDEE0E2E4E6E8EAEBEDEEF0D7
:10030000F1F3F4F5F6F8F9FAFAFBFCFDFDFEFEFE5A
:10031000FFFFFF000000003800000000003700026F
:1003200002020202020102040810200011241FBE72
:10033000CFE5D2E0DEBFCDBF10E0A0E6B0E0E0EB5D
:10034000F8E002C005900D92A038B107D9F721E07E
:10035000A0E8B0E001C01D92AE39B207E1F73BD290
:10036000A5C24ECE80919A00803A20F481E080931D
:10037000970008958D3D10F082E0F9CF109297001C
:10038000089590E0FC01EB5DFC4F2491815E9C4F51
:10039000FC018491882399F090E0880F991FFC015B
:1003A000E75EFC4FA591B491FC01ED5EFC4F859199
:1003B00094918FB7F894EC91E22BEC938FBF089552
:1003C0001F920F920FB60F9211242F933F934F93CA
:1003D0005F936F937F938F939F93AF93BF93EF93AD
:1003E000FF932091600094B185B1E22FF0E0E656D2
:1003F000FF4F892798278927969587959695879502
:10040000808320939900809198008F5F863038F523
:1004100080939800E0919800F0E0E758FF4F8081CA
:100420008093600097B1907797B997B1892B87B97E
:1004300080919900811116C095DF369AFF91EF9156
:10044000BF91AF919F918F917F916F915F914F91EC
:100450003F912F910F900FBE0F901F901895109203
:100460009800D8CF8230C1F480919C0090E0880F32
:10047000991F880F991F20919700880F991F880F47
:10048000991F213039F48F51934090938E008093BF
:100490008D00D3CF0196F9CF833079F620919D005E
:1004A00030E0220F331F220F331F40919700220F9D
:1004B000331F220F331F413049F42F5A34403695F1
:1004C00027953093960020939500B7CFC9010196E8
:1004D000423049F5E0919B00F0E045E0F595E79565
:1004E0004A95E1F79093960080939500EF59FF4F5E
:1004F000608170E00196C9D190939400809393003D
:10050000608570E0C9010297C0D1909392008093FA
:100510009100608970E0C9010896B7D1909390006E
:1005200080938F008ACF909396008093950090934C
:1005300094008093930090939200809391007DCFDC
:100540001F920F920FB60F921124BF92CF92DF929B
:10055000EF92FF920F931F932F933F934F935F93CD
:100560006F937F938F939F93AF93BF93CF93DF93BB
:10057000EF93FF9380918C0088BD80918B0089BDA3
:100580002091890030918A0080918D0090918E0099
:10059000280F391F30938A0020938900009187002B
:1005A000109188008091950090919600080F191F76
:1005B0001093880000938700A0918500B091860079
:1005C0008091930090919400A80FB91FB09386007A
:1005D000A0938500E0918300F0918400C091910088
:1005E000D0919200CE0FDF1FD0938400C093830080
:1005F00080919700813009F477C0E8F0823009F4E7
:10060000A7C0FF91EF91DF91CF91BF91AF919F91E3
:100610008F917F916F915F914F913F912F911F919A
:100620000F91FF90EF90DF90CF90BF900F900FBE93
:100630000F901F901895B0908200E0909B00832F40
:100640009927CC24CA94D12CF12CA601481B590B14
:10065000CA01B7011AD1492F90938200E92FF0E027
:10066000AB2FBB27A256BF4FAC91B0E0C6018E198D
:100670009F09BD010AD1D92ECF01BD0106D19D0D23
:1006800090938B00B41630F480E090E49093860051
:1006900080938500CF018B19910997FF03C0919535
:1006A00081959109843040F0E0E0F82FEC0FFD1FB8
:1006B000F0938400E0938300012F1127F801E256A4
:1006C000FF4F808190E0B701E0D0FC01E20FF31F03
:1006D000A6E0F695E795AA95E1F7FF27E256FF4FCA
:1006E000808180938C008DCF012F1127E32FFF276E
:1006F000D801A256BF4FEA0FFB1F808180938B0069
:10070000369527953695279540919B004456550B75
:1007100065E0440F551F6A95E1F72417350720F06F
:1007200010928A0010928900E0918900F0918A006D
:10073000F695E795F695E795E25EFF4FE491E05870
:100740006C9170E08E2F90E0A0D090938C0059CFE8
:10075000409180005091810080918F009091900095
:10076000840F951F9093810080938000012F1127A3
:1007700040919B004017110609F040F4232F3327C6
:10078000F901E256FF4F208120938C00AB2FBB274D
:10079000A256BF4F2C9102561F4FF8013081622F95
:1007A000630F7727771FED2FFF27E256FF4F20813A
:1007B000260F372F311D892F9927FC01E256FF4F55
:1007C0008081820F932F911D95958795959587959B
:1007D00080938B0016CF83E08ABD83BF789480E43A
:1007E0008CBD8FEF8DBD87EC80BF87E886B9E3E9CC
:1007F000F2E0AEE9B0E084918D93319681E0AE31C4
:10080000B807C9F78FEF80931E01EDE1F1E0AFE18A
:10081000B1E080818D93319790E0EE39F907C9F707
:1008200080E0AFDD81E0ADDD87B5826087BD8FE818
:1008300091E00197F1F700C0000007B400FEFDCF82
:1008400087B5846087BD87B5806887BDF89483EAE3
:100850008ABD81E083BF10BE1FBC82E08CBD8FEFDC
:100860008EBD8DBD80E489BF85E880BF789417B8C0
:100870008FE886B98091600097B1907797B997B16A
:10088000892B87B9369A6EDDFECF0024552704C028
:10089000080E591F880F991F009729F076956795C4
:1008A000B8F37105B9F7802D952F0895F894FFCF0F
:1008B0000102020203010204040304050201050609
:1008C00008030807080706081000010002000300DB
:00000001FF
